{
  "_format": "hh-sol-artifact-1",
  "contractName": "LotteryGame",
  "sourceName": "contracts/Lottery.sol",
  "abi": [
    {
      "inputs": [
        {
          "internalType": "address",
          "name": "vrfCoordinator",
          "type": "address"
        },
        {
          "internalType": "address",
          "name": "link",
          "type": "address"
        },
        {
          "internalType": "bytes32",
          "name": "_keyHash",
          "type": "bytes32"
        },
        {
          "internalType": "uint256",
          "name": "_fee",
          "type": "uint256"
        }
      ],
      "stateMutability": "nonpayable",
      "type": "constructor"
    },
    {
      "inputs": [
        {
          "internalType": "uint256",
          "name": "_ticketPrice",
          "type": "uint256"
        },
        {
          "internalType": "uint256",
          "name": "_seconds",
          "type": "uint256"
        }
      ],
      "name": "createGame",
      "outputs": [],
      "stateMutability": "payable",
      "type": "function"
    },
    {
      "inputs": [
        {
          "internalType": "uint256",
          "name": "_gameId",
          "type": "uint256"
        }
      ],
      "name": "getGame",
      "outputs": [
        {
          "components": [
            {
              "internalType": "uint256",
              "name": "id",
              "type": "uint256"
            },
            {
              "internalType": "address[]",
              "name": "players",
              "type": "address[]"
            },
            {
              "internalType": "uint256",
              "name": "ticketPrice",
              "type": "uint256"
            },
            {
              "internalType": "uint256",
              "name": "finalPrize",
              "type": "uint256"
            },
            {
              "internalType": "address",
              "name": "winner",
              "type": "address"
            },
            {
              "internalType": "bool",
              "name": "hasWinner",
              "type": "bool"
            },
            {
              "internalType": "uint256",
              "name": "endDate",
              "type": "uint256"
            }
          ],
          "internalType": "struct LotteryGame.Game",
          "name": "",
          "type": "tuple"
        }
      ],
      "stateMutability": "view",
      "type": "function"
    },
    {
      "inputs": [],
      "name": "getGamesCount",
      "outputs": [
        {
          "internalType": "uint256",
          "name": "",
          "type": "uint256"
        }
      ],
      "stateMutability": "view",
      "type": "function"
    },
    {
      "inputs": [
        {
          "internalType": "uint256",
          "name": "_gameId",
          "type": "uint256"
        }
      ],
      "name": "pickWinner",
      "outputs": [],
      "stateMutability": "nonpayable",
      "type": "function"
    },
    {
      "inputs": [
        {
          "internalType": "bytes32",
          "name": "requestId",
          "type": "bytes32"
        },
        {
          "internalType": "uint256",
          "name": "randomness",
          "type": "uint256"
        }
      ],
      "name": "rawFulfillRandomness",
      "outputs": [],
      "stateMutability": "nonpayable",
      "type": "function"
    },
    {
      "inputs": [
        {
          "internalType": "uint256",
          "name": "_gameId",
          "type": "uint256"
        }
      ],
      "name": "takePart",
      "outputs": [],
      "stateMutability": "payable",
      "type": "function"
    }
  ],
  "bytecode": "0x60c06040523480156200001157600080fd5b5060405162002008380380620020088339818101604052810190620000379190620001dc565b83838173ffffffffffffffffffffffffffffffffffffffff1660a08173ffffffffffffffffffffffffffffffffffffffff16815250508073ffffffffffffffffffffffffffffffffffffffff1660808173ffffffffffffffffffffffffffffffffffffffff16815250505050816005819055508060068190555033600760006101000a81548173ffffffffffffffffffffffffffffffffffffffff021916908373ffffffffffffffffffffffffffffffffffffffff160217905550505050506200024e565b600080fd5b600073ffffffffffffffffffffffffffffffffffffffff82169050919050565b60006200012e8262000101565b9050919050565b620001408162000121565b81146200014c57600080fd5b50565b600081519050620001608162000135565b92915050565b6000819050919050565b6200017b8162000166565b81146200018757600080fd5b50565b6000815190506200019b8162000170565b92915050565b6000819050919050565b620001b681620001a1565b8114620001c257600080fd5b50565b600081519050620001d681620001ab565b92915050565b60008060008060808587031215620001f957620001f8620000fc565b5b600062000209878288016200014f565b94505060206200021c878288016200014f565b93505060406200022f878288016200018a565b92505060606200024287828801620001c5565b91505092959194509250565b60805160a051611d86620002826000396000818161040b0152610e1f015260008181610aac0152610de30152611d866000f3fe6080604052600436106100555760003560e01c806317b7a4761461005a57806360104cef1461008557806394985ddd146100a1578063a2f77bcc146100ca578063f673269e14610107578063f737d21d14610123575b600080fd5b34801561006657600080fd5b5061006f61014c565b60405161007c91906110d8565b60405180910390f35b61009f600480360381019061009a9190611124565b61015d565b005b3480156100ad57600080fd5b506100c860048036038101906100c3919061119a565b610409565b005b3480156100d657600080fd5b506100f160048036038101906100ec91906111da565b6104a5565b6040516100fe91906113bd565b60405180910390f35b610121600480360381019061011c91906111da565b6105f9565b005b34801561012f57600080fd5b5061014a600480360381019061014591906111da565b610720565b005b60006101586001610bc4565b905090565b600760009054906101000a900473ffffffffffffffffffffffffffffffffffffffff1673ffffffffffffffffffffffffffffffffffffffff163373ffffffffffffffffffffffffffffffffffffffff16146101ed576040517f08c379a00000000000000000000000000000000000000000000000000000000081526004016101e490611462565b60405180910390fd5b60008211610230576040517f08c379a0000000000000000000000000000000000000000000000000000000008152600401610227906114f4565b60405180910390fd5b60008111610273576040517f08c379a000000000000000000000000000000000000000000000000000000000815260040161026a90611586565b60405180910390fd5b60006040518060e0016040528061028a6001610bc4565b8152602001600067ffffffffffffffff8111156102aa576102a96115a6565b5b6040519080825280602002602001820160405280156102d85781602001602082028036833780820191505090505b50815260200184815260200160008152602001600073ffffffffffffffffffffffffffffffffffffffff16815260200160001515815260200160018461031e9190611604565b42610329919061165e565b8152509050806002600061033d6001610bc4565b8152602001908152602001600020600082015181600001556020820151816001019080519060200190610371929190610fc3565b50604082015181600201556060820151816003015560808201518160040160006101000a81548173ffffffffffffffffffffffffffffffffffffffff021916908373ffffffffffffffffffffffffffffffffffffffff16021790555060a08201518160040160146101000a81548160ff02191690831515021790555060c082015181600501559050506104046001610bd2565b505050565b7f000000000000000000000000000000000000000000000000000000000000000073ffffffffffffffffffffffffffffffffffffffff163373ffffffffffffffffffffffffffffffffffffffff1614610497576040517f08c379a000000000000000000000000000000000000000000000000000000000815260040161048e90611700565b60405180910390fd5b6104a18282610be8565b5050565b6104ad61104d565b600260008381526020019081526020016000206040518060e0016040529081600082015481526020016001820180548060200260200160405190810160405280929190818152602001828054801561055a57602002820191906000526020600020905b8160009054906101000a900473ffffffffffffffffffffffffffffffffffffffff1673ffffffffffffffffffffffffffffffffffffffff1681526020019060010190808311610510575b5050505050815260200160028201548152602001600382015481526020016004820160009054906101000a900473ffffffffffffffffffffffffffffffffffffffff1673ffffffffffffffffffffffffffffffffffffffff1673ffffffffffffffffffffffffffffffffffffffff1681526020016004820160149054906101000a900460ff161515151581526020016005820154815250509050919050565b600060026000838152602001908152602001600020905080600501544210610656576040517f08c379a000000000000000000000000000000000000000000000000000000000815260040161064d9061176c565b60405180910390fd5b3481600201541461069c576040517f08c379a0000000000000000000000000000000000000000000000000000000008152600401610693906117fe565b60405180910390fd5b80600101339080600181540180825580915050600190039060005260206000200160009091909190916101000a81548173ffffffffffffffffffffffffffffffffffffffff021916908373ffffffffffffffffffffffffffffffffffffffff16021790555034816003016000828254610715919061165e565b925050819055505050565b600760009054906101000a900473ffffffffffffffffffffffffffffffffffffffff1673ffffffffffffffffffffffffffffffffffffffff163373ffffffffffffffffffffffffffffffffffffffff16146107b0576040517f08c379a00000000000000000000000000000000000000000000000000000000081526004016107a790611462565b60405180910390fd5b60006002600083815260200190815260200160002090508060050154421061080d576040517f08c379a00000000000000000000000000000000000000000000000000000000081526004016108049061176c565b60405180910390fd5b8060040160149054906101000a900460ff161561085f576040517f08c379a00000000000000000000000000000000000000000000000000000000081526004016108569061186a565b60405180910390fd5b600160036000848152602001908152602001600020541415610aa757600073ffffffffffffffffffffffffffffffffffffffff16816001016000815481106108aa576108a961188a565b5b9060005260206000200160009054906101000a900473ffffffffffffffffffffffffffffffffffffffff1673ffffffffffffffffffffffffffffffffffffffff16141561092c576040517f08c379a00000000000000000000000000000000000000000000000000000000081526004016109239061192b565b60405180910390fd5b806001016000815481106109435761094261188a565b5b9060005260206000200160009054906101000a900473ffffffffffffffffffffffffffffffffffffffff168160040160006101000a81548173ffffffffffffffffffffffffffffffffffffffff021916908373ffffffffffffffffffffffffffffffffffffffff16021790555060018160040160146101000a81548160ff02191690831515021790555060008160040160009054906101000a900473ffffffffffffffffffffffffffffffffffffffff1673ffffffffffffffffffffffffffffffffffffffff168260030154604051610a1b9061197c565b60006040518083038185875af1925050503d8060008114610a58576040519150601f19603f3d011682016040523d82523d6000602084013e610a5d565b606091505b5050905080610aa1576040517f08c379a0000000000000000000000000000000000000000000000000000000008152600401610a98906119dd565b60405180910390fd5b50610bc0565b6006547f000000000000000000000000000000000000000000000000000000000000000073ffffffffffffffffffffffffffffffffffffffff166370a08231306040518263ffffffff1660e01b8152600401610b039190611a0c565b60206040518083038186803b158015610b1b57600080fd5b505afa158015610b2f573d6000803e3d6000fd5b505050506040513d601f19601f82011682018060405250810190610b539190611a3c565b1015610b94576040517f08c379a0000000000000000000000000000000000000000000000000000000008152600401610b8b90611ab5565b60405180910390fd5b6000610ba4600554600654610ddf565b9050826004600083815260200190815260200160002081905550505b5050565b600081600001549050919050565b6001816000016000828254019250508190555050565b60006004600084815260200190815260200160002054905060006002600083815260200190815260200160002090506000610c33826001018054905085610f3e90919063ffffffff16565b905060018260040160146101000a81548160ff021916908315150217905550816001018181548110610c6857610c6761188a565b5b9060005260206000200160009054906101000a900473ffffffffffffffffffffffffffffffffffffffff168260040160006101000a81548173ffffffffffffffffffffffffffffffffffffffff021916908373ffffffffffffffffffffffffffffffffffffffff1602179055506004600086815260200190815260200160002060009055600360008481526020019081526020016000206000905560008260040160009054906101000a900473ffffffffffffffffffffffffffffffffffffffff1673ffffffffffffffffffffffffffffffffffffffff168360030154604051610d519061197c565b60006040518083038185875af1925050503d8060008114610d8e576040519150601f19603f3d011682016040523d82523d6000602084013e610d93565b606091505b5050905080610dd7576040517f08c379a0000000000000000000000000000000000000000000000000000000008152600401610dce906119dd565b60405180910390fd5b505050505050565b60007f000000000000000000000000000000000000000000000000000000000000000073ffffffffffffffffffffffffffffffffffffffff16634000aea07f000000000000000000000000000000000000000000000000000000000000000084866000604051602001610e53929190611ae4565b6040516020818303038152906040526040518463ffffffff1660e01b8152600401610e8093929190611ba6565b602060405180830381600087803b158015610e9a57600080fd5b505af1158015610eae573d6000803e3d6000fd5b505050506040513d601f19601f82011682018060405250810190610ed29190611c10565b506000610ef48460003060008089815260200190815260200160002054610f54565b9050600160008086815260200190815260200160002054610f15919061165e565b60008086815260200190815260200160002081905550610f358482610f90565b91505092915050565b60008183610f4c9190611c6c565b905092915050565b600084848484604051602001610f6d9493929190611c9d565b6040516020818303038152906040528051906020012060001c9050949350505050565b60008282604051602001610fa5929190611d24565b60405160208183030381529060405280519060200120905092915050565b82805482825590600052602060002090810192821561103c579160200282015b8281111561103b5782518260006101000a81548173ffffffffffffffffffffffffffffffffffffffff021916908373ffffffffffffffffffffffffffffffffffffffff16021790555091602001919060010190610fe3565b5b50905061104991906110a2565b5090565b6040518060e0016040528060008152602001606081526020016000815260200160008152602001600073ffffffffffffffffffffffffffffffffffffffff168152602001600015158152602001600081525090565b5b808211156110bb5760008160009055506001016110a3565b5090565b6000819050919050565b6110d2816110bf565b82525050565b60006020820190506110ed60008301846110c9565b92915050565b600080fd5b611101816110bf565b811461110c57600080fd5b50565b60008135905061111e816110f8565b92915050565b6000806040838503121561113b5761113a6110f3565b5b60006111498582860161110f565b925050602061115a8582860161110f565b9150509250929050565b6000819050919050565b61117781611164565b811461118257600080fd5b50565b6000813590506111948161116e565b92915050565b600080604083850312156111b1576111b06110f3565b5b60006111bf85828601611185565b92505060206111d08582860161110f565b9150509250929050565b6000602082840312156111f0576111ef6110f3565b5b60006111fe8482850161110f565b91505092915050565b611210816110bf565b82525050565b600081519050919050565b600082825260208201905092915050565b6000819050602082019050919050565b600073ffffffffffffffffffffffffffffffffffffffff82169050919050565b600061126d82611242565b9050919050565b61127d81611262565b82525050565b600061128f8383611274565b60208301905092915050565b6000602082019050919050565b60006112b382611216565b6112bd8185611221565b93506112c883611232565b8060005b838110156112f95781516112e08882611283565b97506112eb8361129b565b9250506001810190506112cc565b5085935050505092915050565b60008115159050919050565b61131b81611306565b82525050565b600060e0830160008301516113396000860182611207565b506020830151848203602086015261135182826112a8565b91505060408301516113666040860182611207565b5060608301516113796060860182611207565b50608083015161138c6080860182611274565b5060a083015161139f60a0860182611312565b5060c08301516113b260c0860182611207565b508091505092915050565b600060208201905081810360008301526113d78184611321565b905092915050565b600082825260208201905092915050565b7f4f6e6c79206f776e65722063616e2063616c6c20746869732066756e6374696f60008201527f6e00000000000000000000000000000000000000000000000000000000000000602082015250565b600061144c6021836113df565b9150611457826113f0565b604082019050919050565b6000602082019050818103600083015261147b8161143f565b9050919050565b7f5469636b6574207072696365206d75737420626520677265617465722074686160008201527f6e207a65726f0000000000000000000000000000000000000000000000000000602082015250565b60006114de6026836113df565b91506114e982611482565b604082019050919050565b6000602082019050818103600083015261150d816114d1565b9050919050565b7f47616d652074696d65206d7573742062652067726561746572207468616e207a60008201527f65726f0000000000000000000000000000000000000000000000000000000000602082015250565b60006115706023836113df565b915061157b82611514565b604082019050919050565b6000602082019050818103600083015261159f81611563565b9050919050565b7f4e487b7100000000000000000000000000000000000000000000000000000000600052604160045260246000fd5b7f4e487b7100000000000000000000000000000000000000000000000000000000600052601160045260246000fd5b600061160f826110bf565b915061161a836110bf565b9250817fffffffffffffffffffffffffffffffffffffffffffffffffffffffffffffffff0483118215151615611653576116526115d5565b5b828202905092915050565b6000611669826110bf565b9150611674836110bf565b9250827fffffffffffffffffffffffffffffffffffffffffffffffffffffffffffffffff038211156116a9576116a86115d5565b5b828201905092915050565b7f4f6e6c7920565246436f6f7264696e61746f722063616e2066756c66696c6c00600082015250565b60006116ea601f836113df565b91506116f5826116b4565b602082019050919050565b60006020820190508181036000830152611719816116dd565b9050919050565b7f47616d6520697320616c726561647920636f6d706c6574650000000000000000600082015250565b60006117566018836113df565b915061176182611720565b602082019050919050565b6000602082019050818103600083015261178581611749565b9050919050565b7f56616c7565206d75737420626520657175616c20746f207469636b657420707260008201527f6963650000000000000000000000000000000000000000000000000000000000602082015250565b60006117e86023836113df565b91506117f38261178c565b604082019050919050565b60006020820190508181036000830152611817816117db565b9050919050565b7f47616d652068617320616c726561647920612077696e6e657200000000000000600082015250565b60006118546019836113df565b915061185f8261181e565b602082019050919050565b6000602082019050818103600083015261188381611847565b9050919050565b7f4e487b7100000000000000000000000000000000000000000000000000000000600052603260045260246000fd5b7f546865726520617265206e6f20706c617965727320696e20746869732067616d60008201527f6500000000000000000000000000000000000000000000000000000000000000602082015250565b60006119156021836113df565b9150611920826118b9565b604082019050919050565b6000602082019050818103600083015261194481611908565b9050919050565b600081905092915050565b50565b600061196660008361194b565b915061197182611956565b600082019050919050565b600061198782611959565b9150819050919050565b7f5472616e73666572206661696c65640000000000000000000000000000000000600082015250565b60006119c7600f836113df565b91506119d282611991565b602082019050919050565b600060208201905081810360008301526119f6816119ba565b9050919050565b611a0681611262565b82525050565b6000602082019050611a2160008301846119fd565b92915050565b600081519050611a36816110f8565b92915050565b600060208284031215611a5257611a516110f3565b5b6000611a6084828501611a27565b91505092915050565b7f4e6f7420656e6f756768204c494e4b0000000000000000000000000000000000600082015250565b6000611a9f600f836113df565b9150611aaa82611a69565b602082019050919050565b60006020820190508181036000830152611ace81611a92565b9050919050565b611ade81611164565b82525050565b6000604082019050611af96000830185611ad5565b611b0660208301846110c9565b9392505050565b600081519050919050565b600082825260208201905092915050565b60005b83811015611b47578082015181840152602081019050611b2c565b83811115611b56576000848401525b50505050565b6000601f19601f8301169050919050565b6000611b7882611b0d565b611b828185611b18565b9350611b92818560208601611b29565b611b9b81611b5c565b840191505092915050565b6000606082019050611bbb60008301866119fd565b611bc860208301856110c9565b8181036040830152611bda8184611b6d565b9050949350505050565b611bed81611306565b8114611bf857600080fd5b50565b600081519050611c0a81611be4565b92915050565b600060208284031215611c2657611c256110f3565b5b6000611c3484828501611bfb565b91505092915050565b7f4e487b7100000000000000000000000000000000000000000000000000000000600052601260045260246000fd5b6000611c77826110bf565b9150611c82836110bf565b925082611c9257611c91611c3d565b5b828206905092915050565b6000608082019050611cb26000830187611ad5565b611cbf60208301866110c9565b611ccc60408301856119fd565b611cd960608301846110c9565b95945050505050565b6000819050919050565b611cfd611cf882611164565b611ce2565b82525050565b6000819050919050565b611d1e611d19826110bf565b611d03565b82525050565b6000611d308285611cec565b602082019150611d408284611d0d565b602082019150819050939250505056fea2646970667358221220898e6820a51f5b2d2077f79342c0bd3f9ba2707621ba106ebc3f1cb2215ffc9164736f6c63430008090033",
  "linkReferences": {},
  "deployedLinkReferences": {}
}