{
  "_format": "hh-sol-artifact-1",
  "contractName": "LotteryGame",
  "sourceName": "contracts/Lottery.sol",
  "abi": [
    {
      "inputs": [],
      "stateMutability": "nonpayable",
      "type": "constructor"
    },
    {
      "inputs": [
        {
          "internalType": "uint256",
          "name": "_price",
          "type": "uint256"
        },
        {
          "internalType": "uint256",
          "name": "_seconds",
          "type": "uint256"
        }
      ],
      "name": "createGame",
      "outputs": [],
      "stateMutability": "payable",
      "type": "function"
    },
    {
      "inputs": [
        {
          "internalType": "uint256",
          "name": "_gameId",
          "type": "uint256"
        }
      ],
      "name": "getGame",
      "outputs": [
        {
          "components": [
            {
              "internalType": "uint256",
              "name": "id",
              "type": "uint256"
            },
            {
              "internalType": "address[]",
              "name": "players",
              "type": "address[]"
            },
            {
              "internalType": "uint256",
              "name": "price",
              "type": "uint256"
            },
            {
              "internalType": "uint256",
              "name": "total",
              "type": "uint256"
            },
            {
              "internalType": "address",
              "name": "winner",
              "type": "address"
            },
            {
              "internalType": "bool",
              "name": "hasWinner",
              "type": "bool"
            },
            {
              "internalType": "uint256",
              "name": "endDate",
              "type": "uint256"
            }
          ],
          "internalType": "struct LotteryGame.Game",
          "name": "",
          "type": "tuple"
        }
      ],
      "stateMutability": "view",
      "type": "function"
    },
    {
      "inputs": [],
      "name": "getGamesCount",
      "outputs": [
        {
          "internalType": "uint256",
          "name": "",
          "type": "uint256"
        }
      ],
      "stateMutability": "view",
      "type": "function"
    },
    {
      "inputs": [],
      "name": "getOwner",
      "outputs": [
        {
          "internalType": "address",
          "name": "",
          "type": "address"
        }
      ],
      "stateMutability": "view",
      "type": "function"
    },
    {
      "inputs": [
        {
          "internalType": "uint256",
          "name": "_gameId",
          "type": "uint256"
        }
      ],
      "name": "pickWinner",
      "outputs": [],
      "stateMutability": "nonpayable",
      "type": "function"
    },
    {
      "inputs": [
        {
          "internalType": "address[]",
          "name": "_players",
          "type": "address[]"
        }
      ],
      "name": "random",
      "outputs": [
        {
          "internalType": "uint256",
          "name": "",
          "type": "uint256"
        }
      ],
      "stateMutability": "view",
      "type": "function"
    },
    {
      "inputs": [
        {
          "internalType": "uint256",
          "name": "_gameId",
          "type": "uint256"
        }
      ],
      "name": "takePart",
      "outputs": [],
      "stateMutability": "payable",
      "type": "function"
    }
  ],
  "bytecode": "0x608060405234801561001057600080fd5b5033600360006101000a81548173ffffffffffffffffffffffffffffffffffffffff021916908373ffffffffffffffffffffffffffffffffffffffff16021790555060008081905550611aa5806100686000396000f3fe6080604052600436106100705760003560e01c8063a2f77bcc1161004e578063a2f77bcc146100e7578063d4266cf314610124578063f673269e14610161578063f737d21d1461017d57610070565b806317b7a4761461007557806360104cef146100a0578063893d20e8146100bc575b600080fd5b34801561008157600080fd5b5061008a6101a6565b6040516100979190610ec1565b60405180910390f35b6100ba60048036038101906100b59190610f1c565b6101af565b005b3480156100c857600080fd5b506100d1610459565b6040516100de9190610f9d565b60405180910390f35b3480156100f357600080fd5b5061010e60048036038101906101099190610fb8565b610483565b60405161011b9190611169565b60405180910390f35b34801561013057600080fd5b5061014b60048036038101906101469190611310565b6105d7565b6040516101589190610ec1565b60405180910390f35b61017b60048036038101906101769190610fb8565b61060e565b005b34801561018957600080fd5b506101a4600480360381019061019f9190610fb8565b61080f565b005b60008054905090565b600360009054906101000a900473ffffffffffffffffffffffffffffffffffffffff1673ffffffffffffffffffffffffffffffffffffffff163373ffffffffffffffffffffffffffffffffffffffff161461023f576040517f08c379a0000000000000000000000000000000000000000000000000000000008152600401610236906113dc565b60405180910390fd5b60008211610282576040517f08c379a00000000000000000000000000000000000000000000000000000000081526004016102799061146e565b60405180910390fd5b600081116102c5576040517f08c379a00000000000000000000000000000000000000000000000000000000081526004016102bc90611500565b60405180910390fd5b60006040518060e001604052806000548152602001600067ffffffffffffffff8111156102f5576102f46111a1565b5b6040519080825280602002602001820160405280156103235781602001602082028036833780820191505090505b50815260200184815260200160008152602001600073ffffffffffffffffffffffffffffffffffffffff168152602001600015158152602001600184610369919061154f565b4261037491906115a9565b81525090508060016000805481526020019081526020016000206000820151816000015560208201518160010190805190602001906103b4929190610dac565b50604082015181600201556060820151816003015560808201518160040160006101000a81548173ffffffffffffffffffffffffffffffffffffffff021916908373ffffffffffffffffffffffffffffffffffffffff16021790555060a08201518160040160146101000a81548160ff02191690831515021790555060c0820151816005015590505060008081548092919061044f906115ff565b9190505550505050565b6000600360009054906101000a900473ffffffffffffffffffffffffffffffffffffffff16905090565b61048b610e36565b600160008381526020019081526020016000206040518060e0016040529081600082015481526020016001820180548060200260200160405190810160405280929190818152602001828054801561053857602002820191906000526020600020905b8160009054906101000a900473ffffffffffffffffffffffffffffffffffffffff1673ffffffffffffffffffffffffffffffffffffffff16815260200190600101908083116104ee575b5050505050815260200160028201548152602001600382015481526020016004820160009054906101000a900473ffffffffffffffffffffffffffffffffffffffff1673ffffffffffffffffffffffffffffffffffffffff1673ffffffffffffffffffffffffffffffffffffffff1681526020016004820160149054906101000a900460ff161515151581526020016005820154815250509050919050565b60004442836040516020016105ee939291906116f9565b6040516020818303038152906040528051906020012060001c9050919050565b60006001600083815260200190815260200160002090508060050154421061066b576040517f08c379a00000000000000000000000000000000000000000000000000000000081526004016106629061177e565b60405180910390fd5b348160020154146106b1576040517f08c379a00000000000000000000000000000000000000000000000000000000081526004016106a890611810565b60405180910390fd5b80600101339080600181540180825580915050600190039060005260206000200160009091909190916101000a81548173ffffffffffffffffffffffffffffffffffffffff021916908373ffffffffffffffffffffffffffffffffffffffff1602179055503481600301600082825461072a91906115a9565b9250508190555060006002600084815260200190815260200160002060003373ffffffffffffffffffffffffffffffffffffffff1673ffffffffffffffffffffffffffffffffffffffff16815260200190815260200160002060009054906101000a900460ff16905060001515811515141561080a5760016002600085815260200190815260200160002060003373ffffffffffffffffffffffffffffffffffffffff1673ffffffffffffffffffffffffffffffffffffffff16815260200190815260200160002060006101000a81548160ff0219169083151502179055505b505050565b600360009054906101000a900473ffffffffffffffffffffffffffffffffffffffff1673ffffffffffffffffffffffffffffffffffffffff163373ffffffffffffffffffffffffffffffffffffffff161461089f576040517f08c379a0000000000000000000000000000000000000000000000000000000008152600401610896906113dc565b60405180910390fd5b6000600160008381526020019081526020016000209050806005015442106108fc576040517f08c379a00000000000000000000000000000000000000000000000000000000081526004016108f39061177e565b60405180910390fd5b8060040160149054906101000a900460ff161561094e576040517f08c379a00000000000000000000000000000000000000000000000000000000081526004016109459061187c565b60405180910390fd5b600181600101805490501415610b8a57600073ffffffffffffffffffffffffffffffffffffffff168160010160008154811061098d5761098c61189c565b5b9060005260206000200160009054906101000a900473ffffffffffffffffffffffffffffffffffffffff1673ffffffffffffffffffffffffffffffffffffffff161415610a0f576040517f08c379a0000000000000000000000000000000000000000000000000000000008152600401610a069061193d565b60405180910390fd5b80600101600081548110610a2657610a2561189c565b5b9060005260206000200160009054906101000a900473ffffffffffffffffffffffffffffffffffffffff168160040160006101000a81548173ffffffffffffffffffffffffffffffffffffffff021916908373ffffffffffffffffffffffffffffffffffffffff16021790555060018160040160146101000a81548160ff02191690831515021790555060008160040160009054906101000a900473ffffffffffffffffffffffffffffffffffffffff1673ffffffffffffffffffffffffffffffffffffffff168260030154604051610afe9061198e565b60006040518083038185875af1925050503d8060008114610b3b576040519150601f19603f3d011682016040523d82523d6000602084013e610b40565b606091505b5050905080610b84576040517f08c379a0000000000000000000000000000000000000000000000000000000008152600401610b7b906119ef565b60405180910390fd5b50610da8565b60008160010180549050610c2583600101805480602002602001604051908101604052809291908181526020018280548015610c1b57602002820191906000526020600020905b8160009054906101000a900473ffffffffffffffffffffffffffffffffffffffff1673ffffffffffffffffffffffffffffffffffffffff1681526020019060010190808311610bd1575b50505050506105d7565b610c2f9190611a3e565b9050816001018181548110610c4757610c4661189c565b5b9060005260206000200160009054906101000a900473ffffffffffffffffffffffffffffffffffffffff168260040160006101000a81548173ffffffffffffffffffffffffffffffffffffffff021916908373ffffffffffffffffffffffffffffffffffffffff16021790555060018260040160146101000a81548160ff02191690831515021790555060008260040160009054906101000a900473ffffffffffffffffffffffffffffffffffffffff1673ffffffffffffffffffffffffffffffffffffffff168360030154604051610d1f9061198e565b60006040518083038185875af1925050503d8060008114610d5c576040519150601f19603f3d011682016040523d82523d6000602084013e610d61565b606091505b5050905080610da5576040517f08c379a0000000000000000000000000000000000000000000000000000000008152600401610d9c906119ef565b60405180910390fd5b50505b5050565b828054828255906000526020600020908101928215610e25579160200282015b82811115610e245782518260006101000a81548173ffffffffffffffffffffffffffffffffffffffff021916908373ffffffffffffffffffffffffffffffffffffffff16021790555091602001919060010190610dcc565b5b509050610e329190610e8b565b5090565b6040518060e0016040528060008152602001606081526020016000815260200160008152602001600073ffffffffffffffffffffffffffffffffffffffff168152602001600015158152602001600081525090565b5b80821115610ea4576000816000905550600101610e8c565b5090565b6000819050919050565b610ebb81610ea8565b82525050565b6000602082019050610ed66000830184610eb2565b92915050565b6000604051905090565b600080fd5b600080fd5b610ef981610ea8565b8114610f0457600080fd5b50565b600081359050610f1681610ef0565b92915050565b60008060408385031215610f3357610f32610ee6565b5b6000610f4185828601610f07565b9250506020610f5285828601610f07565b9150509250929050565b600073ffffffffffffffffffffffffffffffffffffffff82169050919050565b6000610f8782610f5c565b9050919050565b610f9781610f7c565b82525050565b6000602082019050610fb26000830184610f8e565b92915050565b600060208284031215610fce57610fcd610ee6565b5b6000610fdc84828501610f07565b91505092915050565b610fee81610ea8565b82525050565b600081519050919050565b600082825260208201905092915050565b6000819050602082019050919050565b61102981610f7c565b82525050565b600061103b8383611020565b60208301905092915050565b6000602082019050919050565b600061105f82610ff4565b6110698185610fff565b935061107483611010565b8060005b838110156110a557815161108c888261102f565b975061109783611047565b925050600181019050611078565b5085935050505092915050565b60008115159050919050565b6110c7816110b2565b82525050565b600060e0830160008301516110e56000860182610fe5565b50602083015184820360208601526110fd8282611054565b91505060408301516111126040860182610fe5565b5060608301516111256060860182610fe5565b5060808301516111386080860182611020565b5060a083015161114b60a08601826110be565b5060c083015161115e60c0860182610fe5565b508091505092915050565b6000602082019050818103600083015261118381846110cd565b905092915050565b600080fd5b6000601f19601f8301169050919050565b7f4e487b7100000000000000000000000000000000000000000000000000000000600052604160045260246000fd5b6111d982611190565b810181811067ffffffffffffffff821117156111f8576111f76111a1565b5b80604052505050565b600061120b610edc565b905061121782826111d0565b919050565b600067ffffffffffffffff821115611237576112366111a1565b5b602082029050602081019050919050565b600080fd5b61125681610f7c565b811461126157600080fd5b50565b6000813590506112738161124d565b92915050565b600061128c6112878461121c565b611201565b905080838252602082019050602084028301858111156112af576112ae611248565b5b835b818110156112d857806112c48882611264565b8452602084019350506020810190506112b1565b5050509392505050565b600082601f8301126112f7576112f661118b565b5b8135611307848260208601611279565b91505092915050565b60006020828403121561132657611325610ee6565b5b600082013567ffffffffffffffff81111561134457611343610eeb565b5b611350848285016112e2565b91505092915050565b600082825260208201905092915050565b7f4f6e6c79206f776e65722063616e2063616c6c20746869732066756e6374696f60008201527f6e00000000000000000000000000000000000000000000000000000000000000602082015250565b60006113c6602183611359565b91506113d18261136a565b604082019050919050565b600060208201905081810360008301526113f5816113b9565b9050919050565b7f5469636b6574207072696365206d75737420626520677265617465722074686160008201527f6e207a65726f0000000000000000000000000000000000000000000000000000602082015250565b6000611458602683611359565b9150611463826113fc565b604082019050919050565b600060208201905081810360008301526114878161144b565b9050919050565b7f47616d652074696d65206d7573742062652067726561746572207468616e207a60008201527f65726f0000000000000000000000000000000000000000000000000000000000602082015250565b60006114ea602383611359565b91506114f58261148e565b604082019050919050565b60006020820190508181036000830152611519816114dd565b9050919050565b7f4e487b7100000000000000000000000000000000000000000000000000000000600052601160045260246000fd5b600061155a82610ea8565b915061156583610ea8565b9250817fffffffffffffffffffffffffffffffffffffffffffffffffffffffffffffffff048311821515161561159e5761159d611520565b5b828202905092915050565b60006115b482610ea8565b91506115bf83610ea8565b9250827fffffffffffffffffffffffffffffffffffffffffffffffffffffffffffffffff038211156115f4576115f3611520565b5b828201905092915050565b600061160a82610ea8565b91507fffffffffffffffffffffffffffffffffffffffffffffffffffffffffffffffff82141561163d5761163c611520565b5b600182019050919050565b6000819050919050565b61166361165e82610ea8565b611648565b82525050565b600081905092915050565b61167d81610f7c565b82525050565b600061168f8383611674565b60208301905092915050565b60006116a682610ff4565b6116b08185611669565b93506116bb83611010565b8060005b838110156116ec5781516116d38882611683565b97506116de83611047565b9250506001810190506116bf565b5085935050505092915050565b60006117058286611652565b6020820191506117158285611652565b602082019150611725828461169b565b9150819050949350505050565b7f47616d6520697320616c726561647920636f6d706c6574650000000000000000600082015250565b6000611768601883611359565b915061177382611732565b602082019050919050565b600060208201905081810360008301526117978161175b565b9050919050565b7f56616c7565206d75737420626520657175616c20746f207469636b657420707260008201527f6963650000000000000000000000000000000000000000000000000000000000602082015250565b60006117fa602383611359565b91506118058261179e565b604082019050919050565b60006020820190508181036000830152611829816117ed565b9050919050565b7f47616d652068617320616c726561647920612077696e6e657200000000000000600082015250565b6000611866601983611359565b915061187182611830565b602082019050919050565b6000602082019050818103600083015261189581611859565b9050919050565b7f4e487b7100000000000000000000000000000000000000000000000000000000600052603260045260246000fd5b7f546865726520617265206e6f20706c617965727320696e20746869732067616d60008201527f6500000000000000000000000000000000000000000000000000000000000000602082015250565b6000611927602183611359565b9150611932826118cb565b604082019050919050565b600060208201905081810360008301526119568161191a565b9050919050565b600081905092915050565b50565b600061197860008361195d565b915061198382611968565b600082019050919050565b60006119998261196b565b9150819050919050565b7f5472616e73666572206661696c65640000000000000000000000000000000000600082015250565b60006119d9600f83611359565b91506119e4826119a3565b602082019050919050565b60006020820190508181036000830152611a08816119cc565b9050919050565b7f4e487b7100000000000000000000000000000000000000000000000000000000600052601260045260246000fd5b6000611a4982610ea8565b9150611a5483610ea8565b925082611a6457611a63611a0f565b5b82820690509291505056fea26469706673582212204ccb10286dc00e77072fa112fbf8432c4cdad2e4f62138cfcace3540dea73ed964736f6c63430008090033",
  "linkReferences": {},
  "deployedLinkReferences": {}
}